:100000000C9428010C9459010C9459010C94590139
:100010000C9459010C9459010C9459010C945901F8
:100020000C9459010C9459010C9459010C945901E8
:100030000C9459010C9459010C9459010C945901D8
:100040000C9459010C9459010C9459010C945901C8
:100050000C9459010C9459010C9459010C945706B5
:100060000C9459010C94EC060C94C2060C945901A2
:100070000C9459010C9459010C9459010C94590198
:100080000C9459010C9459010C9459010C94590188
:100090000C9459010C9459010C9459010C94590178
:1000A0000C9459010C9459010C9459010C94590168
:1000B0000C9459010C9459010C9459010C94590158
:1000C0000C9459010C9459010C9459010C94590148
:1000D0000C9459010C9459010C9459010C94590138
:1000E0000C9459010C94D6030C94B2010C94940115
:1000F0000C94A3030C94AC010C94B4030C94CA01AB
:100100000C94A0010C94BB040C947A010C94800113
:100110000C94D5010C94C8030C94A6010C94900186
:100120000C94D0010C94BE010C94C4010C94710485
:100130000C94B8010C9486010C949A010C94400321
:100140000C94BB060C948C010000210024002700B5
:100150002A002D00300033000101000004010701D6
:100160000A0100002200250028002B002E0031008B
:10017000340002010000050108010B010505050519
:10018000070508080808020202020A0A080804040F
:10019000040401010101010101010303030303033D
:1001A0000303040707070C0C0C0C0C0C0C0C0202CC
:1001B000020206060606060606060B0B0B0B0B0BC9
:1001C0000B0B010210202008081020401020408056
:1001D000020102010804020101020408102040800B
:1001E0008040201008040201800402018040201099
:1001F00008040201080402010102040810204080E2
:10020000010204081020408000000A0B02090C0DB6
:100210000E080703040100000000000000000000B9
:1002200000000000000000000000000000000000CE
:10023000000000001211100000000000000000008B
:100240000000000000000000000000000000BB06ED
:1002500011241FBECFEFD1E2DEBFCDBF00E00CBF47
:1002600022E0A8E3B2E001C01D92A23EB207E1F78E
:1002700012E0A0E0B2E0E4E5F3E100E00BBF02C071
:1002800007900D92A833B107D9F711E0C8E2D1E089
:1002900000E006C021970109802FFE010E948A0715
:1002A000C732D10780E00807A9F70E94B2060C9474
:1002B000A8090C94000008958150823108F075C09F
:1002C000E82FF0E08827E859FE4F8F4F0C948A07FB
:1002D0008C0190017A0180018601D50194019A0177
:1002E000A001A601AC01B201B801BE01D501C40153
:1002F000CA01D001E0E8F0E080818F778083089523
:10030000E0E8F0E080818F7D80830895E0E8F0E010
:100310008081877F8083089584B58F7784BD089519
:1003200084B58F7D84BD0895E0EBF0E080818F7708
:1003300080830895E0EBF0E080818F7D80830895D5
:10034000E0E9F0E080818F7780830895E0E9F0E0D4
:1003500080818F7D80830895E0E9F0E08081877F50
:1003600080830895E0EAF0E080818F7780830895AC
:10037000E0EAF0E080818F7D80830895E0EAF0E09C
:100380008081877F80830895E0E2F1E080818F772C
:1003900080830895E0E2F1E080818F7D808308957D
:1003A000E0E2F1E08081877F808308951F93CF93FF
:1003B000DF93282F30E0F901E85FFD4F8491F901C8
:1003C000EE53FE4F1491F901E458FE4FC491CC2333
:1003D000A9F0D62F811116C0EC2FF0E0EE0FFF1F11
:1003E000EE59FE4FA591B4918FB7F894D1110DC07D
:1003F0009C91E12FE095E923EC938FBFDF91CF91A2
:100400001F9108950E945C01E7CFEC91E12BEC93E2
:10041000F4CFCF93DF9390E0FC01EE53FE4F249195
:1004200084589E4FFC018491882319F190E0880F35
:10043000991FFC01E85BFE4FA591B491FC01EE59B8
:10044000FE4FC591D491662349F06230A9F08FB771
:10045000F894EC91E22BEC938FBF0BC09FB7F8940C
:100460008C91E22FE0958E238C938881E823E8839A
:100470009FBFDF91CF9108959FB7F8943C91822F51
:10048000809583238C93E881E22BE8839FBFF1CF93
:10049000863308F08653EBE7F0E04081477F982FE2
:1004A000969596959695292F30E0220F331F220FAF
:1004B000331F220F331F2870242B20838770806402
:1004C00080937C00EAE7F0E0808180648083809103
:1004D0007A0086FDFCCF8091780090917900089594
:1004E000789484B5826084BD84B5816084BD85B50F
:1004F000826085BD85B5816085BDEEE6F0E08081D6
:1005000081608083E1E8F0E01082808182608083F6
:10051000808181608083E0E8F0E080818160808379
:10052000E1EBF0E0808184608083E0EBF0E08081AB
:1005300081608083E1E9F0E0808182608083808156
:1005400081608083E0E9F0E0808181608083E1EA7E
:10055000F0E0808182608083808181608083E0EA36
:10056000F0E0808181608083E1E2F1E0808182605F
:100570008083808181608083E0E2F1E0808181601E
:100580008083EAE7F0E080818460808380818260FC
:1005900080838081816080838081806880831092E5
:1005A000C10008953FB7F8948091DA029091DB0280
:1005B000A091DC02B091DD0226B5A89B05C02F3FBB
:1005C00019F00196A11DB11D3FBFBA2FA92F982F79
:1005D0008827BC01CD01620F711D811D911D660F21
:1005E000771F881F991F660F771F881F991F08950F
:1005F0008F929F92AF92BF92CF92DF92EF92FF9233
:100600006B017C010E94D2024B015C011BC021E006
:10061000C21AD108E108F10888EE880E83E0981E1E
:10062000A11CB11CC114D104E104F10459F00E94D1
:10063000D202681979098A099B09683E73408105CD
:10064000910528F7C114D104E104F10459F7FF9092
:10065000EF90DF90CF90BF90AF909F908F900895D4
:100660000895DB0114964D915C9115976D917C91E5
:10067000DC01ED91FC910280F381E02D1995089544
:10068000CF92DF92EF92FF920F931F93CF93DF935E
:100690008C01DB01D0E0C0E07A0181E0E81AF108CA
:1006A000452BA1F0F80180819181FC0120813181ED
:1006B0006D01FFEFCF1ADF0A6C91C801F90119959E
:1006C000892B21F02196A701D601E6CFCE01DF913B
:1006D000CF911F910F91FF90EF90DF90CF900895F1
:1006E000019709F008956F3F7F4FE1F7E8E3F2E0EB
:1006F0001382128288EE93E0A0E0B0E084839583B9
:10070000A683B7838AE092E09183808385EC90E0B2
:100710009587848784EC90E09787868780EC90E0CB
:10072000918B808B81EC90E0938B828B82EC90E0BC
:10073000958B848B86EC90E0978B868B118E128E36
:10074000138E148ECFCFFC01938D848D981720F4D7
:10075000891B990B019708952FE330E0291B31097C
:10076000820F932F911D0895FC01918D828D981712
:1007700061F0A28DAE0FBF2FB11D5D968C91928D51
:100780009F5F9F73928F90E008958FEF9FEF089582
:10079000FC01918D828D981731F0828DE80FF11D4B
:1007A000858D90E008958FEF9FEF0895FC01218DD6
:1007B00030E0205C3F4F828DA901481B5109CA01DE
:1007C0008F739927089588E392E00E94D60321E071
:1007D000892B09F420E0822F0895CF92DF92EF92C7
:1007E000FF921F93CF93DF93EC016A017B01122FDD
:1007F00060E079E08DE390E0A70196010E94680730
:10080000215031094109510956954795379527954A
:10081000E889F98982E08083C11481EED806E10479
:10082000F10421F0211580E1380798F0E889F98971
:10083000108260E874E88EE190E0A70196010E94C2
:100840006807215031094109510956954795379557
:100850002795EC85FD853083EE85FF852083188EF6
:10086000EC89FD891083EA89FB898081806180831E
:10087000EA89FB89808188608083EA89FB8980819D
:1008800080688083EA89FB8980818F7D8083DF9106
:10089000CF911F91FF90EF90DF90CF900895FC01D2
:1008A000A48DA80FB92FB11DA35ABF4F2C91848DD1
:1008B00090E001968F739078848FA689B7892C93E6
:1008C000A089B1898C91837080648C93938D848D81
:1008D000981308950288F389E02D80818F7D8083AD
:1008E000F8CF0F931F93CF93DF93EC0181E0888FB4
:1008F0009B8D8C8D9817B1F0062F8B8D90E0019613
:100900008F739078182F8C8D81131EC00FB607FC43
:10091000FACFE889F989808185FFF5CFCE010E9461
:100920004F04F1CFE889F989808185FFE5CF9FB732
:10093000F894EE89FF896083E889F9898081837062
:10094000806480839FBF10C0EB8DEC0FFD2FF11DE5
:10095000E35AFF4F00839FB7F8941B8FEA89FB8906
:100960008081806280839FBF81E090E0DF91CF91A2
:100970001F910F910895CF93DF93EC01888D811122
:1009800004C00DC00FB607FE0DC0EA89FB89808147
:1009900085FDF8CFA889B9898C9186FFF3CFDF91C7
:1009A000CF910895808185FFF0CFE889F989808112
:1009B00085FFEBCFCE010E944F04E7CF80E090E0AF
:1009C000892B21F00E94E303811125C080E090E093
:1009D000892B41F080E090E0892B21F00E940000FB
:1009E00081111CC080E090E0892B41F080E090E014
:1009F000892B21F00E940000811113C080E090E05B
:100A0000892B41F080E090E0892B21F00E940000CA
:100A100081110AC008950E940000D8CF0E940000F2
:100A2000E1CF0E940000EACF0E940000F3CF6115E1
:100A3000710581F0FB0101900020E9F73197AF01CA
:100A4000461B570BDC01ED91FC910280F381E02DF8
:100A50001995089590E080E008950E941705089583
:100A600026E040E855E260E070E088E392E00E9412
:100A7000ED0361E08DE00E94090268E172E088E325
:100A800092E00E942D0564EF71E080E090E00E940A
:100A9000F8020895DC01ED91FC910280F381E02DD4
:100AA00042E050E064E372E0199508950F931F93BC
:100AB000CF93DF93EC010E9431038C01CE010E94A1
:100AC0004A05800F911FDF91CF911F910F910895DB
:100AD0000F931F93CF93DF93EC018B016F5F7F4FD9
:100AE000888199810E94B708009751F09983888383
:100AF0001B830A8381E0DF91CF911F910F910895AD
:100B000080E0F9CFCF93DF93EC0128813981232B4B
:100B100029F02A813B812617370770F4CE010E9405
:100B20006805882351F08C819D81892B49F4E881E7
:100B3000F981108281E001C081E0DF91CF910895B9
:100B400081E0FBCFCF93DF93EC01888199810097FF
:100B500011F00E942E08198218821D821C821B82AD
:100B60001A82DF91CF910895EF92FF920F931F9316
:100B7000CF93DF93EC017B018A01BA010E948205C9
:100B8000882379F01D830C83B701888199810E94A5
:100B9000A109CE01DF91CF911F910F91FF90EF90AE
:100BA0000895CE010E94A205F4CFCF93DF93EC010C
:100BB0006115710571F0FB0101900020E9F7319793
:100BC000AF01461B570B0E94B405CE01DF91CF91B8
:100BD00008950E94A205F9CFFC01808191810097C0
:100BE00011F00E942E0808950F931F93CF93DF9367
:100BF000CDB7DEB762970FB6F894DEBF0FBECDBF9C
:100C00008C01CB01F80111821082138212821582AD
:100C1000148250E0BE016F5F7F4F0E942807BE0123
:100C20006F5F7F4FC8010E94D50562960FB6F8949A
:100C3000DEBF0FBECDBFDF91CF911F910F91089501
:100C4000CF93DF9300D000D0CDB7DEB787E30E940B
:100C500048024AE0BC01CE0101960E94F405BE01A3
:100C60006F5F7F4F88E392E00E945605CE010196A8
:100C70000E94EC0561E08DE00E94D60168EC70E016
:100C800080E090E00E94F80260E08DE00E94D601D2
:100C900060ED77E080E090E00E94F80226960FB6C3
:100CA000F894DEBF0FBECDBFDF91CF9108951F92A4
:100CB0000F920FB60F9211240F931F932F933F9310
:100CC0004F935F936F937F938F939F93AF93BF9354
:100CD0000091D6021091D7022091D8023091D9020A
:100CE0009091D502B901A8014F5F5F4F6F4F7F4FC1
:100CF00083E0890F8D3740F086E8890FB901A8019C
:100D00004E5F5F4F6F4F7F4F8093D5024093D60267
:100D10005093D7026093D8027093D9028091DA027F
:100D20009091DB02A091DC02B091DD020196A11D41
:100D3000B11D8093DA029093DB02A093DC02B093A2
:100D4000DD02BF91AF919F918F917F916F915F91E4
:100D50004F913F912F911F910F910F900FBE0F90C8
:100D60001F9018950E9470020E9430050E94200674
:100D70000E94DE04FBCF6FEF7FEF81E090E00E94E6
:100D8000700308951F920F920FB60F9211240BB6A5
:100D90000F922F933F934F935F936F937F938F9314
:100DA0009F93AF93BF93EF93FF9388E392E00E94EA
:100DB0004F04FF91EF91BF91AF919F918F917F91E0
:100DC0006F915F914F913F912F910F900BBE0F90BC
:100DD0000FBE0F901F9018951F920F920FB60F9293
:100DE00011240BB60F922F938F939F93AF93BF93C2
:100DF000EF93FF93E0914802F0914902808182FDD8
:100E000014C0E8E3F2E0A689B7892C91818D8F5F49
:100E10008F73928D891771F0DF01E18DF0E0E85C4E
:100E2000FD4F258F59968C9305C0E0914E02F091AD
:100E30004F028081FF91EF91BF91AF919F918F9170
:100E40002F910F900BBE0F900FBE0F901F90189513
:100E50004532510520F4423010F00C943307FB0169
:100E60001082CB010895BB274A3031F4992322F434
:100E7000BDE2909581959F4F0C943F07BB27FB01E6
:100E80005527AA27880F991FAA1FA41710F0A41B83
:100E900083955051B9F7A05DAA3308F0A95DA193DD
:100EA000009779F7B111B1931192CB010C945807C7
:100EB000DC01FC01672F71917723E1F7329704C0C1
:100EC0007C916D9370836291AE17BF07C8F308954C
:100ED000A1E21A2EAA1BBB1BFD010DC0AA1FBB1F3E
:100EE000EE1FFF1FA217B307E407F50720F0A21BB0
:100EF000B30BE40BF50B661F771F881F991F1A941D
:100F000069F760957095809590959B01AC01BD0146
:100F1000CF010895EE0FFF1F881F8BBF0790F6913A
:100F2000E02D19940F931F93CF93DF938230910597
:100F300010F482E090E0E091E002F091E10230E014
:100F400020E0B0E0A0E0309799F42115310509F4D4
:100F50004AC0281B390B24303105D8F58A819B8182
:100F60006115710589F1FB0193838283FE0111C034
:100F7000408151810281138148175907E0F04817D9
:100F8000590799F4109761F012960C9312971396E3
:100F90001C933296CF01DF91CF911F910F9108954D
:100FA0000093E0021093E102F4CF2115310551F0D6
:100FB0004217530738F0A901DB019A01BD01DF0197
:100FC000F801C1CFEF01F9CF9093E1028093E002E5
:100FD000CDCFFE01E20FF31F81939193225031098F
:100FE00039832883D7CF2091DE023091DF02232B73
:100FF00041F420910202309103023093DF022093EA
:10100000DE0220910002309101022115310541F4E8
:101010002DB73EB74091040250910502241B350BB9
:10102000E091DE02F091DF02E217F307A0F42E1B3D
:101030003F0B2817390778F0AC014E5F5F4F24173C
:10104000350748F04E0F5F1F5093DF024093DE02DA
:10105000819391939FCFF0E0E0E09CCFCF93DF931B
:101060000097E9F0FC01329713821282A091E0020E
:10107000B091E102ED0130E020E01097A1F4208171
:101080003181820F931F2091DE023091DF022817F9
:10109000390709F061C0F093DF02E093DE02DF91CF
:1010A000CF910895EA01CE17DF07E8F54A815B8109
:1010B0009E0141155105B1F7E901FB83EA8349918E
:1010C0005991C40FD51FEC17FD0761F48081918100
:1010D0000296840F951FE901998388838281938109
:1010E0009B838A83F0E0E0E012968D919C911397A8
:1010F0000097B9F52D913C911197CD010296820F81
:10110000931F2091DE023091DF022817390739F64C
:10111000309751F51092E1021092E002B093DF0295
:10112000A093DE02BCCFD383C28340815181840F60
:10113000951FC817D90761F44E5F5F4F8881998169
:10114000480F591F518340838A819B8193838283F7
:101150002115310509F0B0CFF093E102E093E002F0
:101160009ECFFD01DC01C0CF13821282D7CF4F92F8
:101170005F926F927F928F929F92AF92BF92CF9227
:10118000DF92EF92FF920F931F93CF93DF938C0127
:10119000009799F4CB01DF91CF911F910F91FF90B0
:1011A000EF90DF90CF90BF90AF909F908F907F9007
:1011B0006F905F904F900C949207FC01E60FF71F21
:1011C0009C0122503109E217F30708F4AEC0D9019F
:1011D000CD91DC911197C617D70720F1C530D10505
:1011E00078F0CE0104978617970750F0C61BD70BEF
:1011F0002297C193D1936D937C93CF010E942E08C7
:10120000C801DF91CF911F910F91FF90EF90DF9078
:10121000CF90BF90AF909F908F907F906F905F9096
:101220004F9008955B01AC1ABD0A4C018C0E9D1EB7
:10123000A091E002B091E102512C412CF12CE12C63
:10124000109731F58091DE029091DF0288159905A3
:1012500009F05CC04616570608F058C0809100029D
:1012600090910102009741F48DB79EB7409104021E
:1012700050910502841B950BE817F90708F055C03B
:10128000F093DF02E093DE02F90171836083B8CF4F
:101290008D919C91119712966C90129713967C9059
:1012A0001397A815B90559F56C0142E0C40ED11C7D
:1012B000CA14DB0420F1AC014A195B09DA01129669
:1012C000159780F06282738251834083D9016D93B8
:1012D0007C93E114F10471F0D7011396FC93EE9323
:1012E00012978ECF22968C0F9D1FF90191838083D8
:1012F000F301EFCFF093E102E093E00281CF4816D3
:10130000590608F42C017D01D3019ACFCB010E942C
:1013100092077C01009749F0AE01B8010E9498093C
:10132000C8010E942E0887016BCF10E000E068CF53
:10133000FB01DC0102C001900D9241505040D8F7F2
:101340000895FB01DC0101900D920020E1F7089562
:04135000F894FFCF3F
:101354000000E20280000000000071044003A303C7
:10136400BB04D603B403C803494E4943494F204C38
:1013740045435455524120414E414C4F4749434106
:081384003A200A000D0A0000E6
:00000001FF
